:100000000C9434000C943E000C943E000C943E0082
:100010000C943E000C943E000C943E000C943E0068
:100020000C943E000C943E000C943E000C943E0058
:100030000C943E000C943E000C943E000C943E0048
:100040000C943E000C943E000C943E000C943E0038
:100050000C943E000C943E000C943E000C943E0028
:100060000C943E000C943E0011241FBECFEFD8E04C
:10007000DEBFCDBF0E9440000C94A0000C94000095
:10008000219A809180008268809380008091810015
:100090008D618093810089E09DE390938700809338
:1000A00086002AE030E04A991AC08FE39CE9019764
:1000B000F1F700C000004A9912C02B30310568F4F6
:1000C000215031098091860090918700B9010E94EA
:1000D0008C0070938900609388004A9BFECF4C99F6
:1000E000E2CF8FE39CE90197F1F700C000004C9943
:1000F000DACF2115310569F02F5F3F4F80918600DF
:1001000090918700B9010E948C00709389006093E0
:1001100088004C9BFECFC7CFAA1BBB1B51E107C079
:10012000AA1FBB1FA617B70710F0A61BB70B881F87
:10013000991F5A95A9F780959095BC01CD01089516
:04014000F894FFCF61
:00000001FF
