:100000000C9434000C9449000C9449000C94490061
:100010000C9449000C9449000C9449000C9449003C
:100020000C9449000C9449000C9449000C9449002C
:100030000C9449000C9449000C9449000C9449001C
:100040000C9449000C9449000C9449000C9449000C
:100050000C9449000C9449000C9449000C944900FC
:100060000C9449000C94490011241FBECFEFD8E036
:10007000DEBFCDBF11E0A0E0B1E0E0E6F3E002C0FA
:1000800005900D92AE34B107D9F70E944D010C9442
:10009000AE010C94000084B18C6284B98CB581658A
:1000A0008CBD08958EBD0DB407FEFDCF08951F933E
:1000B000CF93DF93EB01182F892F0E945200812FDD
:1000C0000E9452008D2F0E9452008C2FDF91CF9101
:1000D0001F910C9452004F925F926F927F928F9279
:1000E0009F92AF92BF92CF92DF92EF92FF920F93C7
:1000F0001F932B013C0149015A016701780160E01F
:1001000070E0CB010E945700C301B2010E9457006A
:10011000C501B4010E945700C701B6010E945700F3
:100120006FEF7FEFCB011F910F91FF90EF90DF906A
:10013000CF90BF90AF909F908F907F906F905F9087
:100140004F900C945700EF92FF920F931F938535B9
:1001500068F4E12CF12C00E01FEF20E030E040E0FB
:100160005FEF60E070E080E09FEF1CC08A3A48F4E7
:10017000E12CF12C00E01FEF20E030E040E05FEFE9
:100180000EC08F3F29F0E12CF12C00E01FEF04C0DE
:10019000EE24EA94FE2C87012FEF3FEFA9016FEFC9
:1001A0007FEFCB010E946B001F910F91FF90EF90AA
:1001B00008951092C50088E08093C40086E0809383
:1001C000C20088E98093C10008959091C00095FF16
:1001D000FCCF8093C60008958091C00087FFFCCFBC
:1001E0008091C6000895CF93DF93EC018991882315
:1001F00019F00E94E500FACFDF91CF910895CF93D7
:10020000DF93CDB7DEB72C970FB6F894DEBF0FBEE5
:10021000CDBF2CE0E0E0F1E0DE01119601900D92FF
:100220002A95E1F7FE0131969E01235F3F4F5191E0
:10023000DC014D91CD01541305C0E217F307B9F766
:1002400081E001C080E02C960FB6F894DEBF0FBEAF
:10025000CDBFDF91CF910895FC0180818332D9F425
:10026000DF0111969F01295F3F4FA217B30749F0A5
:100270008D9190ED980F973170F48A538730A8F7DD
:100280000AC08781843439F48085863324F081E084
:10029000918599330CF080E00895CF93DF93CDB72B
:1002A000DEB72D970FB6F894DEBF0FBECDBF0E940C
:1002B0004B000E94D9002FEF81EE94E02150804046
:1002C0009040E1F700C000008DE091E00E94F30053
:1002D00000E010E00E94EC00F82E882341F10D3080
:1002E00011052CF52DE0821317C08AE291E00E94DF
:1002F000F300CE0101960E94F3008D85805D0E947F
:10030000E500CE0101960E94FF00892B99F087E35A
:1003100091E00E94F30018C00E94E500E1E0F0E0E7
:10032000EC0FFD1FE00FF11FF0820F5F1F4F0D302C
:10033000110551F486E491E00E94F3008DE091E014
:100340000E94F30000E010E08FEF99EF20E0815071
:1003500090402040E1F700C00000BCCFF894FFCFF0
:100360002346554C4C5241494E424F5700456E74FE
:10037000657220612076616C756520235252474773
:1003800042424444203A200D0A0072656E74726540
:10039000206963690D0A006368656174636F646551
:0E03A000206F6B0D0A001B5B324A1B5B48008E
:00000001FF
