:100000000C9434000C943E000C943E000C943E0082
:100010000C943E000C943E000C943E000C943E0068
:100020000C943E000C943E000C943E000C943E0058
:100030000C943E000C943E000C943E000C943E0048
:100040000C943E000C943E000C943E000C943E0038
:100050000C943E000C943E000C943E000C943E0028
:100060000C943E000C943E0011241FBECFEFD8E04C
:10007000DEBFCDBF0E9440000C9472000C940000C3
:10008000219A809180008268809380008091810015
:100090008D618093810089E09DE390938700809338
:1000A000860080918600909187006AE070E00E944F
:1000B0005E007093890060938800FFCFAA1BBB1B72
:1000C00051E107C0AA1FBB1FA617B70710F0A61B58
:1000D000B70B881F991F5A95A9F780959095BC0179
:0800E000CD010895F894FFCF53
:00000001FF
